{
  "contractName": "ChristmasStocking",
  "abi": [
    {
      "inputs": [],
      "payable": false,
      "stateMutability": "nonpayable",
      "type": "constructor"
    },
    {
      "constant": true,
      "inputs": [],
      "name": "isOpen",
      "outputs": [
        {
          "name": "",
          "type": "bool"
        }
      ],
      "payable": false,
      "stateMutability": "view",
      "type": "function"
    },
    {
      "constant": true,
      "inputs": [
        {
          "name": "who",
          "type": "address"
        }
      ],
      "name": "balanceOf",
      "outputs": [
        {
          "name": "",
          "type": "uint256"
        }
      ],
      "payable": false,
      "stateMutability": "view",
      "type": "function"
    },
    {
      "constant": false,
      "inputs": [],
      "name": "deposit",
      "outputs": [],
      "payable": true,
      "stateMutability": "payable",
      "type": "function"
    },
    {
      "constant": false,
      "inputs": [],
      "name": "bribe",
      "outputs": [],
      "payable": true,
      "stateMutability": "payable",
      "type": "function"
    },
    {
      "constant": false,
      "inputs": [],
      "name": "withdraw",
      "outputs": [],
      "payable": false,
      "stateMutability": "nonpayable",
      "type": "function"
    }
  ],
  "bytecode": "0x608060405234801561001057600080fd5b5060008060006101000a81548160ff0219169083151502179055506104738061003a6000396000f3fe60806040526004361061006d576000357c0100000000000000000000000000000000000000000000000000000000900463ffffffff16806337d0208c146100725780633ccfd60b1461007c57806347535d7b1461009357806370a08231146100c2578063d0e30db014610127575b600080fd5b61007a610131565b005b34801561008857600080fd5b506100916101e2565b005b34801561009f57600080fd5b506100a86102b5565b604051808215151515815260200191505060405180910390f35b3480156100ce57600080fd5b50610111600480360360208110156100e557600080fd5b81019080803573ffffffffffffffffffffffffffffffffffffffff1690602001909291905050506102cb565b6040518082815260200191505060405180910390f35b61012f610314565b005b6000809054906101000a900460ff16151561014b57600080fd5b61019d34600160003273ffffffffffffffffffffffffffffffffffffffff1673ffffffffffffffffffffffffffffffffffffffff1681526020019081526020016000205461042690919063ffffffff16565b600160003273ffffffffffffffffffffffffffffffffffffffff1673ffffffffffffffffffffffffffffffffffffffff16815260200190815260200160002081905550565b6000600160003373ffffffffffffffffffffffffffffffffffffffff1673ffffffffffffffffffffffffffffffffffffffff1681526020019081526020016000205490506000600160003373ffffffffffffffffffffffffffffffffffffffff1673ffffffffffffffffffffffffffffffffffffffff168152602001908152602001600020819055503373ffffffffffffffffffffffffffffffffffffffff166108fc829081150290604051600060405180830381858888f193505050501580156102b1573d6000803e3d6000fd5b5050565b60008060009054906101000a900460ff16905090565b6000600160008373ffffffffffffffffffffffffffffffffffffffff1673ffffffffffffffffffffffffffffffffffffffff168152602001908152602001600020549050919050565b60016000806101000a81548160ff02191690831515021790555060003373ffffffffffffffffffffffffffffffffffffffff16346040516020016040516020818303038152906040526040518082805190602001908083835b602083101515610392578051825260208201915060208101905060208303925061036d565b6001836020036101000a03801982511681845116808217855250505050505090500191505060006040518083038185875af1925050503d80600081146103f4576040519150601f19603f3d011682016040523d82523d6000602084013e6103f9565b606091505b5050905080151561040957600080fd5b60008060006101000a81548160ff02191690831515021790555050565b600080828401905083811015151561043d57600080fd5b809150509291505056fea165627a7a723058203c70592520791d468ef1d2a3eac5aa9cd0da0b7232a8b0c0530919bc9010b72f0029",
  "source": "pragma solidity >0.4.99 <0.6.0;\r\n\r\nimport \"./SafeMath.sol\";\r\n\r\ncontract ChristmasStocking {\r\n  using SafeMath for uint256;\r\n\r\n  bool private _isOpen;\r\n  mapping(address => uint256) private _balances;\r\n\r\n  constructor() public {\r\n    _isOpen = false;\r\n  }\r\n\r\n  function isOpen() public view returns (bool) {\r\n    return _isOpen;\r\n  }\r\n\r\n  function balanceOf(address who) public view returns (uint256) {\r\n    return _balances[who];\r\n  }\r\n\r\n  function deposit() payable public {\r\n    _isOpen = true;\r\n    (bool success,) = msg.sender.call.value(msg.value)(abi.encodePacked());\r\n    require(success);\r\n    _isOpen = false;\r\n  }\r\n\r\n  function bribe() payable public {\r\n    require(_isOpen);\r\n    _balances[tx.origin] = _balances[tx.origin].add(msg.value);\r\n  }\r\n\r\n  function withdraw() public {\r\n    uint256 balance = _balances[msg.sender];\r\n    _balances[msg.sender] = 0;\r\n    msg.sender.transfer(balance);\r\n  }\r\n}\r\n",
  "sourcePath": "/home/vagrant/m0t0k1ch1-santa/contracts/ChristmasStocking.sol",
  "compiler": {
    "name": "solc",
    "version": "0.5.0+commit.1d4f565a.Emscripten.clang"
  },
  "schemaVersion": "3.0.0",
  "updatedAt": "2018-12-28T06:06:43.845Z",
  "devdoc": {
    "methods": {}
  },
  "userdoc": {
    "methods": {}
  }
}