{
  "contractName": "ChristmasTree",
  "abi": [
    {
      "constant": true,
      "inputs": [
        {
          "name": "who",
          "type": "address"
        }
      ],
      "name": "powerOf",
      "outputs": [
        {
          "name": "",
          "type": "uint256"
        }
      ],
      "payable": false,
      "stateMutability": "view",
      "type": "function"
    },
    {
      "constant": true,
      "inputs": [
        {
          "name": "who",
          "type": "address"
        },
        {
          "name": "index",
          "type": "uint256"
        }
      ],
      "name": "decorationAt",
      "outputs": [
        {
          "name": "",
          "type": "uint256"
        }
      ],
      "payable": false,
      "stateMutability": "view",
      "type": "function"
    },
    {
      "constant": false,
      "inputs": [],
      "name": "pray",
      "outputs": [],
      "payable": false,
      "stateMutability": "nonpayable",
      "type": "function"
    },
    {
      "constant": false,
      "inputs": [
        {
          "name": "decoration",
          "type": "uint256"
        }
      ],
      "name": "pushDecoration",
      "outputs": [],
      "payable": false,
      "stateMutability": "nonpayable",
      "type": "function"
    },
    {
      "constant": false,
      "inputs": [],
      "name": "popDecoration",
      "outputs": [],
      "payable": false,
      "stateMutability": "nonpayable",
      "type": "function"
    },
    {
      "constant": false,
      "inputs": [
        {
          "name": "index",
          "type": "uint256"
        },
        {
          "name": "decoration",
          "type": "uint256"
        }
      ],
      "name": "replaceDecoration",
      "outputs": [],
      "payable": false,
      "stateMutability": "nonpayable",
      "type": "function"
    }
  ],
  "bytecode": "0x608060405234801561001057600080fd5b5061059e806100206000396000f3fe608060405260043610610078576000357c0100000000000000000000000000000000000000000000000000000000900463ffffffff1680631ac846901461007d578063237c72ac146100e2578063419905e514610127578063b73eb3e91461013e578063c54d51d4146101ad578063dd565e76146101c4575b600080fd5b34801561008957600080fd5b506100cc600480360360208110156100a057600080fd5b81019080803573ffffffffffffffffffffffffffffffffffffffff1690602001909291905050506101ff565b6040518082815260200191505060405180910390f35b3480156100ee57600080fd5b506101256004803603604081101561010557600080fd5b810190808035906020019092919080359060200190929190505050610247565b005b34801561013357600080fd5b5061013c6102f6565b005b34801561014a57600080fd5b506101976004803603604081101561016157600080fd5b81019080803573ffffffffffffffffffffffffffffffffffffffff1690602001909291908035906020019092919050505061038c565b6040518082815260200191505060405180910390f35b3480156101b957600080fd5b506101c26103ed565b005b3480156101d057600080fd5b506101fd600480360360208110156101e757600080fd5b8101908080359060200190929190505050610494565b005b60008060008373ffffffffffffffffffffffffffffffffffffffff1673ffffffffffffffffffffffffffffffffffffffff168152602001908152602001600020549050919050565b600160003373ffffffffffffffffffffffffffffffffffffffff1673ffffffffffffffffffffffffffffffffffffffff168152602001908152602001600020805490508210151561029757600080fd5b80600160003373ffffffffffffffffffffffffffffffffffffffff1673ffffffffffffffffffffffffffffffffffffffff168152602001908152602001600020838154811015156102e457fe5b90600052602060002001819055505050565b61034860016000803373ffffffffffffffffffffffffffffffffffffffff1673ffffffffffffffffffffffffffffffffffffffff1681526020019081526020016000205461050090919063ffffffff16565b6000803373ffffffffffffffffffffffffffffffffffffffff1673ffffffffffffffffffffffffffffffffffffffff16815260200190815260200160002081905550565b6000600160008473ffffffffffffffffffffffffffffffffffffffff1673ffffffffffffffffffffffffffffffffffffffff168152602001908152602001600020828154811015156103da57fe5b9060005260206000200154905092915050565b6000600160003373ffffffffffffffffffffffffffffffffffffffff1673ffffffffffffffffffffffffffffffffffffffff168152602001908152602001600020805490501015151561043f57600080fd5b600160003373ffffffffffffffffffffffffffffffffffffffff1673ffffffffffffffffffffffffffffffffffffffff1681526020019081526020016000208054809190600190036104919190610521565b50565b600160003373ffffffffffffffffffffffffffffffffffffffff1673ffffffffffffffffffffffffffffffffffffffff16815260200190815260200160002081908060018154018082558091505090600182039060005260206000200160009091929091909150555050565b600080828401905083811015151561051757600080fd5b8091505092915050565b81548183558181111561054857818360005260206000209182019101610547919061054d565b5b505050565b61056f91905b8082111561056b576000816000905550600101610553565b5090565b9056fea165627a7a72305820215e1c5c458739749c618a5be532fd51a1bb1a3a8a63ca755dde568f6a70730a0029",
  "source": "pragma solidity >0.4.99 <0.6.0;\r\n\r\nimport \"./SafeMath.sol\";\r\n\r\ncontract ChristmasTree {\r\n  using SafeMath for uint256;\r\n\r\n  mapping(address => uint256) private _powers;\r\n  mapping(address => uint256[]) private _decorations;\r\n\r\n  function powerOf(address who) public view returns (uint256) {\r\n    return _powers[who];\r\n  }\r\n\r\n  function decorationAt(address who, uint256 index) public view returns (uint256) {\r\n    return _decorations[who][index];\r\n  }\r\n\r\n  function pray() public {\r\n    _powers[msg.sender] = _powers[msg.sender].add(1);\r\n  }\r\n\r\n  function pushDecoration(uint256 decoration) public {\r\n    _decorations[msg.sender].push(decoration);\r\n  }\r\n\r\n  function popDecoration() public {\r\n    require(_decorations[msg.sender].length >= 0);\r\n    _decorations[msg.sender].length--;\r\n  }\r\n\r\n  function replaceDecoration(uint256 index, uint256 decoration) public {\r\n    require(index < _decorations[msg.sender].length);\r\n    _decorations[msg.sender][index] = decoration;\r\n  }\r\n}\r\n",
  "sourcePath": "/home/vagrant/m0t0k1ch1-santa/contracts/ChristmasTree.sol",
  "compiler": {
    "name": "solc",
    "version": "0.5.0+commit.1d4f565a.Emscripten.clang"
  },
  "schemaVersion": "3.0.0",
  "updatedAt": "2018-12-28T06:06:43.846Z",
  "devdoc": {
    "methods": {}
  },
  "userdoc": {
    "methods": {}
  }
}