{
  "contractName": "GiveMeStocking",
  "abi": [
    {
      "constant": true,
      "inputs": [],
      "name": "christmasStocking",
      "outputs": [
        {
          "name": "",
          "type": "address"
        }
      ],
      "payable": false,
      "stateMutability": "view",
      "type": "function"
    },
    {
      "inputs": [
        {
          "name": "_address",
          "type": "address"
        }
      ],
      "payable": false,
      "stateMutability": "nonpayable",
      "type": "constructor"
    },
    {
      "payable": true,
      "stateMutability": "payable",
      "type": "fallback"
    },
    {
      "anonymous": false,
      "inputs": [
        {
          "indexed": false,
          "name": "value",
          "type": "uint256"
        },
        {
          "indexed": false,
          "name": "txOrigin",
          "type": "address"
        }
      ],
      "name": "Fallback",
      "type": "event"
    },
    {
      "constant": true,
      "inputs": [],
      "name": "abiEncodePacked",
      "outputs": [
        {
          "name": "",
          "type": "bytes"
        }
      ],
      "payable": false,
      "stateMutability": "pure",
      "type": "function"
    },
    {
      "constant": true,
      "inputs": [],
      "name": "abiEncodeWithSignature",
      "outputs": [
        {
          "name": "",
          "type": "bytes"
        }
      ],
      "payable": false,
      "stateMutability": "pure",
      "type": "function"
    },
    {
      "constant": true,
      "inputs": [],
      "name": "abiEncodeWithSignatureArgs",
      "outputs": [
        {
          "name": "",
          "type": "bytes"
        }
      ],
      "payable": false,
      "stateMutability": "view",
      "type": "function"
    },
    {
      "constant": false,
      "inputs": [],
      "name": "balanceOf",
      "outputs": [
        {
          "name": "",
          "type": "bytes"
        }
      ],
      "payable": false,
      "stateMutability": "nonpayable",
      "type": "function"
    },
    {
      "constant": false,
      "inputs": [],
      "name": "deposit",
      "outputs": [],
      "payable": true,
      "stateMutability": "payable",
      "type": "function"
    }
  ],
  "bytecode": "0x608060405234801561001057600080fd5b50604051602080610add8339810180604052602081101561003057600080fd5b8101908080519060200190929190505050806000806101000a81548173ffffffffffffffffffffffffffffffffffffffff021916908373ffffffffffffffffffffffffffffffffffffffff16021790555050610a4c806100916000396000f3fe608060405260043610610078576000357c0100000000000000000000000000000000000000000000000000000000900463ffffffff16806348f8459c146102ca57806367c1fb111461035a5780636db1628b146103b1578063722713f714610441578063af11cdc2146104d1578063d0e30db014610561575b60003411151561008757600080fd5b7f066883f5e2094ea620153d7d5962d6fb14fc6369699d90b3d2eff451dc774d0c3432604051808381526020018273ffffffffffffffffffffffffffffffffffffffff1673ffffffffffffffffffffffffffffffffffffffff1681526020019250505060405180910390a160008060009054906101000a900473ffffffffffffffffffffffffffffffffffffffff1673ffffffffffffffffffffffffffffffffffffffff16346040516024016040516020818303038152906040527f37d0208c000000000000000000000000000000000000000000000000000000007bffffffffffffffffffffffffffffffffffffffffffffffffffffffff19166020820180517bffffffffffffffffffffffffffffffffffffffffffffffffffffffff83818316178352505050506040518082805190602001908083835b6020831015156101e557805182526020820191506020810190506020830392506101c0565b6001836020036101000a03801982511681845116808217855250505050505090500191505060006040518083038185875af1925050503d8060008114610247576040519150601f19603f3d011682016040523d82523d6000602084013e61024c565b606091505b5050905080151561025c57600080fd5b7f066883f5e2094ea620153d7d5962d6fb14fc6369699d90b3d2eff451dc774d0c3432604051808381526020018273ffffffffffffffffffffffffffffffffffffffff1673ffffffffffffffffffffffffffffffffffffffff1681526020019250505060405180910390a150005b3480156102d657600080fd5b506102df61056b565b6040518080602001828103825283818151815260200191508051906020019080838360005b8381101561031f578082015181840152602081019050610304565b50505050905090810190601f16801561034c5780820380516001836020036101000a031916815260200191505b509250505060405180910390f35b34801561036657600080fd5b5061036f610587565b604051808273ffffffffffffffffffffffffffffffffffffffff1673ffffffffffffffffffffffffffffffffffffffff16815260200191505060405180910390f35b3480156103bd57600080fd5b506103c66105ac565b6040518080602001828103825283818151815260200191508051906020019080838360005b838110156104065780820151818401526020810190506103eb565b50505050905090810190601f1680156104335780820380516001836020036101000a031916815260200191505b509250505060405180910390f35b34801561044d57600080fd5b50610456610636565b6040518080602001828103825283818151815260200191508051906020019080838360005b8381101561049657808201518184015260208101905061047b565b50505050905090810190601f1680156104c35780820380516001836020036101000a031916815260200191505b509250505060405180910390f35b3480156104dd57600080fd5b506104e66107e3565b6040518080602001828103825283818151815260200191508051906020019080838360005b8381101561052657808201518184015260208101905061050b565b50505050905090810190601f1680156105535780820380516001836020036101000a031916815260200191505b509250505060405180910390f35b6105696108a4565b005b6060604051602001604051602081830303815290604052905090565b6000809054906101000a900473ffffffffffffffffffffffffffffffffffffffff1681565b60606040516024016040516020818303038152906040527fd0e30db0000000000000000000000000000000000000000000000000000000007bffffffffffffffffffffffffffffffffffffffffffffffffffffffff19166020820180517bffffffffffffffffffffffffffffffffffffffffffffffffffffffff8381831617835250505050905090565b6060600060606000809054906101000a900473ffffffffffffffffffffffffffffffffffffffff1673ffffffffffffffffffffffffffffffffffffffff1633604051602401808273ffffffffffffffffffffffffffffffffffffffff1673ffffffffffffffffffffffffffffffffffffffff1681526020019150506040516020818303038152906040527f70a08231000000000000000000000000000000000000000000000000000000007bffffffffffffffffffffffffffffffffffffffffffffffffffffffff19166020820180517bffffffffffffffffffffffffffffffffffffffffffffffffffffffff83818316178352505050506040518082805190602001908083835b602083101515610763578051825260208201915060208101905060208303925061073e565b6001836020036101000a0380198251168184511680821785525050505050509050019150506000604051808303816000865af19150503d80600081146107c5576040519150601f19603f3d011682016040523d82523d6000602084013e6107ca565b606091505b50915091508115156107db57600080fd5b809250505090565b606033604051602401808273ffffffffffffffffffffffffffffffffffffffff1673ffffffffffffffffffffffffffffffffffffffff1681526020019150506040516020818303038152906040527fd0e30db0000000000000000000000000000000000000000000000000000000007bffffffffffffffffffffffffffffffffffffffffffffffffffffffff19166020820180517bffffffffffffffffffffffffffffffffffffffffffffffffffffffff8381831617835250505050905090565b6000341115156108b357600080fd5b60008060009054906101000a900473ffffffffffffffffffffffffffffffffffffffff1673ffffffffffffffffffffffffffffffffffffffff16346040516024016040516020818303038152906040527fd0e30db0000000000000000000000000000000000000000000000000000000007bffffffffffffffffffffffffffffffffffffffffffffffffffffffff19166020820180517bffffffffffffffffffffffffffffffffffffffffffffffffffffffff83818316178352505050506040518082805190602001908083835b6020831015156109a65780518252602082019150602081019050602083039250610981565b6001836020036101000a03801982511681845116808217855250505050505090500191505060006040518083038185875af1925050503d8060008114610a08576040519150601f19603f3d011682016040523d82523d6000602084013e610a0d565b606091505b50509050801515610a1d57600080fd5b5056fea165627a7a723058207fc367334930931d00fd6d5e1fb51a80622289f1ae34dac7f3fc3172c21876160029",
  "source": "pragma solidity >0.4.99 <0.6.0;\r\n\r\nimport \"./ChristmasStocking.sol\";\r\n\r\ncontract GiveMeStocking {\r\n    ChristmasStocking public christmasStocking;\r\n\r\n    event Fallback(\r\n        uint256 value,\r\n        address txOrigin\r\n    );\r\n\r\n    constructor(address _address) public {\r\n        christmasStocking = ChristmasStocking(_address);\r\n    }\r\n\r\n    function abiEncodePacked() external pure returns (bytes memory) {\r\n        return abi.encodePacked();\r\n    }\r\n\r\n    function abiEncodeWithSignature() external pure returns (bytes memory) {\r\n        return abi.encodeWithSignature(\"deposit()\");\r\n    }\r\n\r\n    function abiEncodeWithSignatureArgs() external view returns (bytes memory) {\r\n        return abi.encodeWithSignature(\"deposit()\", msg.sender);\r\n    }\r\n\r\n    function balanceOf() external returns (bytes memory) {\r\n        (bool success, bytes memory ret) = address(christmasStocking).call(abi.encodeWithSignature(\"balanceOf(address)\", msg.sender));\r\n        require(success);\r\n        return ret;\r\n    }\r\n\r\n    function deposit() external payable {\r\n        require(msg.value > 0);\r\n        (bool success,) = address(christmasStocking).call.value(msg.value)(abi.encodeWithSignature(\"deposit()\"));\r\n        require(success);\r\n    }\r\n\r\n    function () external payable {\r\n        require(msg.value > 0);\r\n        emit Fallback(msg.value, tx.origin);\r\n        (bool success,) = address(christmasStocking).call.value(msg.value)(abi.encodeWithSignature(\"bribe()\"));\r\n        require(success);\r\n        emit Fallback(msg.value, tx.origin);\r\n    }\r\n}\r\n",
  "sourcePath": "/home/vagrant/m0t0k1ch1-santa/contracts/GiveMeStocking.sol",
  "compiler": {
    "name": "solc",
    "version": "0.5.0+commit.1d4f565a.Emscripten.clang"
  },
  "schemaVersion": "3.0.0",
  "updatedAt": "2018-12-28T06:06:43.847Z",
  "devdoc": {
    "methods": {}
  },
  "userdoc": {
    "methods": {}
  }
}