{
  "contractName": "Letter",
  "abi": [
    {
      "payable": true,
      "stateMutability": "payable",
      "type": "fallback"
    },
    {
      "constant": true,
      "inputs": [
        {
          "name": "who",
          "type": "address"
        }
      ],
      "name": "balanceOf",
      "outputs": [
        {
          "name": "",
          "type": "uint256"
        }
      ],
      "payable": false,
      "stateMutability": "view",
      "type": "function"
    },
    {
      "constant": true,
      "inputs": [
        {
          "name": "who",
          "type": "address"
        }
      ],
      "name": "isSealed",
      "outputs": [
        {
          "name": "",
          "type": "bool"
        }
      ],
      "payable": false,
      "stateMutability": "view",
      "type": "function"
    },
    {
      "constant": false,
      "inputs": [],
      "name": "seal",
      "outputs": [],
      "payable": false,
      "stateMutability": "nonpayable",
      "type": "function"
    },
    {
      "constant": false,
      "inputs": [],
      "name": "discard",
      "outputs": [],
      "payable": false,
      "stateMutability": "nonpayable",
      "type": "function"
    }
  ],
  "bytecode": "0x608060405234801561001057600080fd5b50610506806100206000396000f3fe608060405260043610610062576000357c0100000000000000000000000000000000000000000000000000000000900463ffffffff1680630a66d698146101505780633fb27b85146101b957806370a08231146101d0578063bb702c8e14610235575b600160003373ffffffffffffffffffffffffffffffffffffffff1673ffffffffffffffffffffffffffffffffffffffff16815260200190815260200160002060009054906101000a900460ff161515156100bb57600080fd5b61010c346000803373ffffffffffffffffffffffffffffffffffffffff1673ffffffffffffffffffffffffffffffffffffffff1681526020019081526020016000205461024c90919063ffffffff16565b6000803373ffffffffffffffffffffffffffffffffffffffff1673ffffffffffffffffffffffffffffffffffffffff16815260200190815260200160002081905550005b34801561015c57600080fd5b5061019f6004803603602081101561017357600080fd5b81019080803573ffffffffffffffffffffffffffffffffffffffff16906020019092919050505061026d565b604051808215151515815260200191505060405180910390f35b3480156101c557600080fd5b506101ce6102c3565b005b3480156101dc57600080fd5b5061021f600480360360208110156101f357600080fd5b81019080803573ffffffffffffffffffffffffffffffffffffffff169060200190929190505050610369565b6040518082815260200191505060405180910390f35b34801561024157600080fd5b5061024a6103b1565b005b600080828401905083811015151561026357600080fd5b8091505092915050565b6000600160008373ffffffffffffffffffffffffffffffffffffffff1673ffffffffffffffffffffffffffffffffffffffff16815260200190815260200160002060009054906101000a900460ff169050919050565b60008060003373ffffffffffffffffffffffffffffffffffffffff1673ffffffffffffffffffffffffffffffffffffffff1681526020019081526020016000205411151561031057600080fd5b60018060003373ffffffffffffffffffffffffffffffffffffffff1673ffffffffffffffffffffffffffffffffffffffff16815260200190815260200160002060006101000a81548160ff021916908315150217905550565b60008060008373ffffffffffffffffffffffffffffffffffffffff1673ffffffffffffffffffffffffffffffffffffffff168152602001908152602001600020549050919050565b60008060003373ffffffffffffffffffffffffffffffffffffffff1673ffffffffffffffffffffffffffffffffffffffff16815260200190815260200160002054905060008060003373ffffffffffffffffffffffffffffffffffffffff1673ffffffffffffffffffffffffffffffffffffffff168152602001908152602001600020819055506000600160003373ffffffffffffffffffffffffffffffffffffffff1673ffffffffffffffffffffffffffffffffffffffff16815260200190815260200160002060006101000a81548160ff0219169083151502179055503373ffffffffffffffffffffffffffffffffffffffff166108fc829081150290604051600060405180830381858888f193505050501580156104d6573d6000803e3d6000fd5b505056fea165627a7a72305820086b12366c101b75fb7e07da2e5ed38d83e68f9ccc61af5ff93d43f6cc42a9810029",
  "source": "pragma solidity >0.4.99 <0.6.0;\r\n\r\nimport \"./SafeMath.sol\";\r\n\r\ncontract Letter {\r\n  using SafeMath for uint256;\r\n\r\n  mapping(address => uint256) private _balances;\r\n  mapping(address => bool) private _isSealeds;\r\n\r\n  function balanceOf(address who) public view returns (uint256) {\r\n    return _balances[who];\r\n  }\r\n\r\n  function isSealed(address who) public view returns (bool) {\r\n    return _isSealeds[who];\r\n  }\r\n\r\n  function () payable external {\r\n    require(!_isSealeds[msg.sender]);\r\n    _balances[msg.sender] = _balances[msg.sender].add(msg.value);\r\n  }\r\n\r\n  function seal() public {\r\n    require(_balances[msg.sender] > 0);\r\n    _isSealeds[msg.sender] = true;\r\n  }\r\n\r\n  function discard() public {\r\n    uint256 balance = _balances[msg.sender];\r\n    _balances[msg.sender] = 0;\r\n    _isSealeds[msg.sender] = false;\r\n    msg.sender.transfer(balance);\r\n  }\r\n}\r\n",
  "sourcePath": "/home/vagrant/m0t0k1ch1-santa/contracts/Letter.sol",
  "compiler": {
    "name": "solc",
    "version": "0.5.0+commit.1d4f565a.Emscripten.clang"
  },
  "schemaVersion": "3.0.0",
  "updatedAt": "2018-12-28T06:06:43.848Z",
  "devdoc": {
    "methods": {}
  },
  "userdoc": {
    "methods": {}
  }
}