{
  "contractName": "SantaClaus",
  "abi": [
    {
      "constant": false,
      "inputs": [],
      "name": "renounceOwnership",
      "outputs": [],
      "payable": false,
      "stateMutability": "nonpayable",
      "type": "function"
    },
    {
      "constant": true,
      "inputs": [],
      "name": "owner",
      "outputs": [
        {
          "name": "",
          "type": "address"
        }
      ],
      "payable": false,
      "stateMutability": "view",
      "type": "function"
    },
    {
      "constant": true,
      "inputs": [],
      "name": "isOwner",
      "outputs": [
        {
          "name": "",
          "type": "bool"
        }
      ],
      "payable": false,
      "stateMutability": "view",
      "type": "function"
    },
    {
      "constant": false,
      "inputs": [
        {
          "name": "newOwner",
          "type": "address"
        }
      ],
      "name": "transferOwnership",
      "outputs": [],
      "payable": false,
      "stateMutability": "nonpayable",
      "type": "function"
    },
    {
      "inputs": [
        {
          "name": "stocking",
          "type": "address"
        },
        {
          "name": "tree",
          "type": "address"
        },
        {
          "name": "letter",
          "type": "address"
        },
        {
          "name": "token",
          "type": "address"
        }
      ],
      "payable": false,
      "stateMutability": "nonpayable",
      "type": "constructor"
    },
    {
      "anonymous": false,
      "inputs": [
        {
          "indexed": true,
          "name": "previousOwner",
          "type": "address"
        },
        {
          "indexed": true,
          "name": "newOwner",
          "type": "address"
        }
      ],
      "name": "OwnershipTransferred",
      "type": "event"
    },
    {
      "constant": true,
      "inputs": [],
      "name": "christmasStocking",
      "outputs": [
        {
          "name": "",
          "type": "address"
        }
      ],
      "payable": false,
      "stateMutability": "view",
      "type": "function"
    },
    {
      "constant": true,
      "inputs": [],
      "name": "christmasTree",
      "outputs": [
        {
          "name": "",
          "type": "address"
        }
      ],
      "payable": false,
      "stateMutability": "view",
      "type": "function"
    },
    {
      "constant": true,
      "inputs": [],
      "name": "letter",
      "outputs": [
        {
          "name": "",
          "type": "address"
        }
      ],
      "payable": false,
      "stateMutability": "view",
      "type": "function"
    },
    {
      "constant": true,
      "inputs": [],
      "name": "token",
      "outputs": [
        {
          "name": "",
          "type": "address"
        }
      ],
      "payable": false,
      "stateMutability": "view",
      "type": "function"
    },
    {
      "constant": false,
      "inputs": [],
      "name": "requestToken",
      "outputs": [],
      "payable": false,
      "stateMutability": "nonpayable",
      "type": "function"
    },
    {
      "constant": false,
      "inputs": [],
      "name": "renounceTokenOwnership",
      "outputs": [],
      "payable": false,
      "stateMutability": "nonpayable",
      "type": "function"
    },
    {
      "constant": false,
      "inputs": [
        {
          "name": "newOwner",
          "type": "address"
        }
      ],
      "name": "transferTokenOwnership",
      "outputs": [],
      "payable": false,
      "stateMutability": "nonpayable",
      "type": "function"
    }
  ],
  "bytecode": "0x608060405234801561001057600080fd5b50604051608080610fa08339810180604052608081101561003057600080fd5b8101908080519060200190929190805190602001909291908051906020019092919080519060200190929190505050336000806101000a81548173ffffffffffffffffffffffffffffffffffffffff021916908373ffffffffffffffffffffffffffffffffffffffff1602179055506000809054906101000a900473ffffffffffffffffffffffffffffffffffffffff1673ffffffffffffffffffffffffffffffffffffffff16600073ffffffffffffffffffffffffffffffffffffffff167f8be0079c531659141344cd1fd0a4f28419497f9722a3daafe3b4186f6b6457e060405160405180910390a383600160006101000a81548173ffffffffffffffffffffffffffffffffffffffff021916908373ffffffffffffffffffffffffffffffffffffffff16021790555082600260006101000a81548173ffffffffffffffffffffffffffffffffffffffff021916908373ffffffffffffffffffffffffffffffffffffffff16021790555081600360006101000a81548173ffffffffffffffffffffffffffffffffffffffff021916908373ffffffffffffffffffffffffffffffffffffffff16021790555080600460006101000a81548173ffffffffffffffffffffffffffffffffffffffff021916908373ffffffffffffffffffffffffffffffffffffffff16021790555050505050610d6e806102326000396000f3fe6080604052600436106100af576000357c0100000000000000000000000000000000000000000000000000000000900463ffffffff16806321e6b53d146100b45780634d7ec6281461010557806367c1fb111461011c57806368af37df146101735780636b722a32146101ca578063715018a6146102215780638da5cb5b146102385780638f32d59b1461028f578063e14f08d5146102be578063f2fde38b146102d5578063fc0c546a14610326575b600080fd5b3480156100c057600080fd5b50610103600480360360208110156100d757600080fd5b81019080803573ffffffffffffffffffffffffffffffffffffffff16906020019092919050505061037d565b005b34801561011157600080fd5b5061011a610468565b005b34801561012857600080fd5b5061013161097c565b604051808273ffffffffffffffffffffffffffffffffffffffff1673ffffffffffffffffffffffffffffffffffffffff16815260200191505060405180910390f35b34801561017f57600080fd5b506101886109a6565b604051808273ffffffffffffffffffffffffffffffffffffffff1673ffffffffffffffffffffffffffffffffffffffff16815260200191505060405180910390f35b3480156101d657600080fd5b506101df6109d0565b604051808273ffffffffffffffffffffffffffffffffffffffff1673ffffffffffffffffffffffffffffffffffffffff16815260200191505060405180910390f35b34801561022d57600080fd5b506102366109fa565b005b34801561024457600080fd5b5061024d610acc565b604051808273ffffffffffffffffffffffffffffffffffffffff1673ffffffffffffffffffffffffffffffffffffffff16815260200191505060405180910390f35b34801561029b57600080fd5b506102a4610af5565b604051808215151515815260200191505060405180910390f35b3480156102ca57600080fd5b506102d3610b4c565b005b3480156102e157600080fd5b50610324600480360360208110156102f857600080fd5b81019080803573ffffffffffffffffffffffffffffffffffffffff169060200190929190505050610bff565b005b34801561033257600080fd5b5061033b610c1e565b604051808273ffffffffffffffffffffffffffffffffffffffff1673ffffffffffffffffffffffffffffffffffffffff16815260200191505060405180910390f35b610385610af5565b151561039057600080fd5b600460009054906101000a900473ffffffffffffffffffffffffffffffffffffffff1673ffffffffffffffffffffffffffffffffffffffff1663f2fde38b826040518263ffffffff167c0100000000000000000000000000000000000000000000000000000000028152600401808273ffffffffffffffffffffffffffffffffffffffff1673ffffffffffffffffffffffffffffffffffffffff168152602001915050600060405180830381600087803b15801561044d57600080fd5b505af1158015610461573d6000803e3d6000fd5b5050505050565b600360009054906101000a900473ffffffffffffffffffffffffffffffffffffffff1673ffffffffffffffffffffffffffffffffffffffff16630a66d698336040518263ffffffff167c0100000000000000000000000000000000000000000000000000000000028152600401808273ffffffffffffffffffffffffffffffffffffffff1673ffffffffffffffffffffffffffffffffffffffff16815260200191505060206040518083038186803b15801561052357600080fd5b505afa158015610537573d6000803e3d6000fd5b505050506040513d602081101561054d57600080fd5b8101908080519060200190929190505050151561056957600080fd5b6000600160009054906101000a900473ffffffffffffffffffffffffffffffffffffffff1673ffffffffffffffffffffffffffffffffffffffff166370a08231336040518263ffffffff167c0100000000000000000000000000000000000000000000000000000000028152600401808273ffffffffffffffffffffffffffffffffffffffff1673ffffffffffffffffffffffffffffffffffffffff16815260200191505060206040518083038186803b15801561062657600080fd5b505afa15801561063a573d6000803e3d6000fd5b505050506040513d602081101561065057600080fd5b810190808051906020019092919050505011151561066d57600080fd5b6305f5e0ff600260009054906101000a900473ffffffffffffffffffffffffffffffffffffffff1673ffffffffffffffffffffffffffffffffffffffff16631ac84690336040518263ffffffff167c0100000000000000000000000000000000000000000000000000000000028152600401808273ffffffffffffffffffffffffffffffffffffffff1673ffffffffffffffffffffffffffffffffffffffff16815260200191505060206040518083038186803b15801561072d57600080fd5b505afa158015610741573d6000803e3d6000fd5b505050506040513d602081101561075757600080fd5b810190808051906020019092919050505011151561077457600080fd5b6000600460009054906101000a900473ffffffffffffffffffffffffffffffffffffffff1673ffffffffffffffffffffffffffffffffffffffff166370a08231336040518263ffffffff167c0100000000000000000000000000000000000000000000000000000000028152600401808273ffffffffffffffffffffffffffffffffffffffff1673ffffffffffffffffffffffffffffffffffffffff16815260200191505060206040518083038186803b15801561083157600080fd5b505afa158015610845573d6000803e3d6000fd5b505050506040513d602081101561085b57600080fd5b810190808051906020019092919050505014151561087857600080fd5b600460009054906101000a900473ffffffffffffffffffffffffffffffffffffffff1673ffffffffffffffffffffffffffffffffffffffff166340c10f193360016040518363ffffffff167c0100000000000000000000000000000000000000000000000000000000028152600401808373ffffffffffffffffffffffffffffffffffffffff1673ffffffffffffffffffffffffffffffffffffffff16815260200182815260200192505050602060405180830381600087803b15801561093e57600080fd5b505af1158015610952573d6000803e3d6000fd5b505050506040513d602081101561096857600080fd5b810190808051906020019092919050505050565b6000600160009054906101000a900473ffffffffffffffffffffffffffffffffffffffff16905090565b6000600360009054906101000a900473ffffffffffffffffffffffffffffffffffffffff16905090565b6000600260009054906101000a900473ffffffffffffffffffffffffffffffffffffffff16905090565b610a02610af5565b1515610a0d57600080fd5b600073ffffffffffffffffffffffffffffffffffffffff166000809054906101000a900473ffffffffffffffffffffffffffffffffffffffff1673ffffffffffffffffffffffffffffffffffffffff167f8be0079c531659141344cd1fd0a4f28419497f9722a3daafe3b4186f6b6457e060405160405180910390a360008060006101000a81548173ffffffffffffffffffffffffffffffffffffffff021916908373ffffffffffffffffffffffffffffffffffffffff160217905550565b60008060009054906101000a900473ffffffffffffffffffffffffffffffffffffffff16905090565b60008060009054906101000a900473ffffffffffffffffffffffffffffffffffffffff1673ffffffffffffffffffffffffffffffffffffffff163373ffffffffffffffffffffffffffffffffffffffff1614905090565b610b54610af5565b1515610b5f57600080fd5b600460009054906101000a900473ffffffffffffffffffffffffffffffffffffffff1673ffffffffffffffffffffffffffffffffffffffff1663715018a66040518163ffffffff167c0100000000000000000000000000000000000000000000000000000000028152600401600060405180830381600087803b158015610be557600080fd5b505af1158015610bf9573d6000803e3d6000fd5b50505050565b610c07610af5565b1515610c1257600080fd5b610c1b81610c48565b50565b6000600460009054906101000a900473ffffffffffffffffffffffffffffffffffffffff16905090565b600073ffffffffffffffffffffffffffffffffffffffff168173ffffffffffffffffffffffffffffffffffffffff1614151515610c8457600080fd5b8073ffffffffffffffffffffffffffffffffffffffff166000809054906101000a900473ffffffffffffffffffffffffffffffffffffffff1673ffffffffffffffffffffffffffffffffffffffff167f8be0079c531659141344cd1fd0a4f28419497f9722a3daafe3b4186f6b6457e060405160405180910390a3806000806101000a81548173ffffffffffffffffffffffffffffffffffffffff021916908373ffffffffffffffffffffffffffffffffffffffff1602179055505056fea165627a7a7230582016d118e2ff88fb3e725e0c68b6f9a6e762eb501fcc638489958b83ecf47016d60029",
  "source": "pragma solidity >0.4.99 <0.6.0;\r\n\r\nimport \"./ChristmasStocking.sol\";\r\nimport \"./ChristmasTree.sol\";\r\nimport \"./Letter.sol\";\r\nimport \"./SantaClausToken.sol\";\r\nimport \"./Ownable.sol\";\r\n\r\ncontract SantaClaus is Ownable {\r\n  ChristmasStocking private _christmasStocking;\r\n  ChristmasTree private _christmasTree;\r\n  Letter private _letter;\r\n  SantaClausToken private _token;\r\n\r\n  constructor(address stocking, address tree, address payable letter, address token) Ownable() public {\r\n    _christmasStocking = ChristmasStocking(stocking);\r\n    _christmasTree = ChristmasTree(tree);\r\n    _letter = Letter(letter);\r\n    _token = SantaClausToken(token);\r\n  }\r\n\r\n  function christmasStocking() public view returns (address) {\r\n    return address(_christmasStocking);\r\n  }\r\n\r\n  function christmasTree() public view returns (address) {\r\n    return address(_christmasTree);\r\n  }\r\n\r\n  function letter() public view returns (address) {\r\n    return address(_letter);\r\n  }\r\n\r\n  function token() public view returns (address) {\r\n    return address(_token);\r\n  }\r\n\r\n  function requestToken() public {\r\n    require(_letter.isSealed(msg.sender));\r\n    require(_christmasStocking.balanceOf(msg.sender) > 0);\r\n    require(_christmasTree.powerOf(msg.sender) > 99999999);\r\n    require(_token.balanceOf(msg.sender) == 0);\r\n\r\n    // Congratulations!!\r\n    _token.mint(msg.sender, 1);\r\n  }\r\n\r\n  function renounceTokenOwnership() public onlyOwner {\r\n    _token.renounceOwnership();\r\n  }\r\n\r\n  function transferTokenOwnership(address newOwner) public onlyOwner {\r\n    _token.transferOwnership(newOwner);\r\n  }\r\n}\r\n",
  "sourcePath": "/home/vagrant/m0t0k1ch1-santa/contracts/SantaClaus.sol",
  "compiler": {
    "name": "solc",
    "version": "0.5.0+commit.1d4f565a.Emscripten.clang"
  },
  "schemaVersion": "3.0.0",
  "updatedAt": "2018-12-28T06:11:36.429Z",
  "devdoc": {
    "methods": {}
  },
  "userdoc": {
    "methods": {}
  }
}