{
  "contractName": "TokenHolders",
  "abi": [
    {
      "inputs": [
        {
          "name": "_token",
          "type": "address"
        }
      ],
      "payable": false,
      "stateMutability": "nonpayable",
      "type": "constructor",
      "signature": "constructor"
    },
    {
      "constant": false,
      "inputs": [
        {
          "name": "name",
          "type": "string"
        }
      ],
      "name": "registerName",
      "outputs": [],
      "payable": false,
      "stateMutability": "nonpayable",
      "type": "function",
      "signature": "0x0830602b"
    },
    {
      "constant": true,
      "inputs": [],
      "name": "getNames",
      "outputs": [
        {
          "name": "",
          "type": "string[]"
        }
      ],
      "payable": false,
      "stateMutability": "view",
      "type": "function",
      "signature": "0xcd838f0f"
    }
  ],
  "bytecode": "0x608060405234801561001057600080fd5b50604051602080610633833981018060405261002f919081019061008a565b80600260006101000a81548173ffffffffffffffffffffffffffffffffffffffff021916908373ffffffffffffffffffffffffffffffffffffffff160217905550506100e5565b600061008282516100d3565b905092915050565b60006020828403121561009c57600080fd5b60006100aa84828501610076565b91505092915050565b600073ffffffffffffffffffffffffffffffffffffffff82169050919050565b60006100de826100b3565b9050919050565b61053f806100f46000396000f3fe60806040526004361061004c576000357c0100000000000000000000000000000000000000000000000000000000900463ffffffff1680630830602b14610051578063cd838f0f1461007a575b600080fd5b34801561005d57600080fd5b5061007860048036036100739190810190610322565b6100a5565b005b34801561008657600080fd5b5061008f61013e565b60405161009c9190610407565b60405180910390f35b60008190806001815401808255809150509060018203906000526020600020016000909192909190915090805190602001906100e2929190610227565b505060018060003373ffffffffffffffffffffffffffffffffffffffff1673ffffffffffffffffffffffffffffffffffffffff16815260200190815260200160002060006101000a81548160ff02191690831515021790555050565b60606000805480602002602001604051908101604052809291908181526020016000905b8282101561021e578382906000526020600020018054600181600116156101000203166002900480601f01602080910402602001604051908101604052809291908181526020018280546001816001161561010002031660029004801561020a5780601f106101df5761010080835404028352916020019161020a565b820191906000526020600020905b8154815290600101906020018083116101ed57829003601f168201915b505050505081526020019060010190610162565b50505050905090565b828054600181600116156101000203166002900490600052602060002090601f016020900481019282601f1061026857805160ff1916838001178555610296565b82800160010185558215610296579182015b8281111561029557825182559160200191906001019061027a565b5b5090506102a391906102a7565b5090565b6102c991905b808211156102c55760008160009055506001016102ad565b5090565b90565b600082601f83011215156102df57600080fd5b81356102f26102ed82610456565b610429565b9150808252602083016020830185838301111561030e57600080fd5b6103198382846104b2565b50505092915050565b60006020828403121561033457600080fd5b600082013567ffffffffffffffff81111561034e57600080fd5b61035a848285016102cc565b91505092915050565b600061036e8261048f565b8084526020840193508360208202850161038785610482565b60005b848110156103c05783830388526103a28383516103d1565b92506103ad826104a5565b915060208801975060018101905061038a565b508196508694505050505092915050565b60006103dc8261049a565b8084526103f08160208601602086016104c1565b6103f9816104f4565b602085010191505092915050565b600060208201905081810360008301526104218184610363565b905092915050565b6000604051905081810181811067ffffffffffffffff8211171561044c57600080fd5b8060405250919050565b600067ffffffffffffffff82111561046d57600080fd5b601f19601f8301169050602081019050919050565b6000602082019050919050565b600081519050919050565b600081519050919050565b6000602082019050919050565b82818337600083830152505050565b60005b838110156104df5780820151818401526020810190506104c4565b838111156104ee576000848401525b50505050565b6000601f19601f830116905091905056fea265627a7a7230582035a409fd497373d38b3faa5417c624e94b33adb22a8813db40b8ca6f739688686c6578706572696d656e74616cf50037",
  "source": "pragma solidity >0.4.99 <0.6.0;\r\npragma experimental ABIEncoderV2;\r\n\r\ncontract SantaClausToken {\r\n    function balanceOf(address who) public view returns (uint256);\r\n}\r\n\r\ncontract TokenHolders {\r\n\r\n    string[] names;\r\n    mapping(address => bool) registeredAddresses;\r\n\r\n    SantaClausToken token;\r\n\r\n    constructor(address _token) public {\r\n        token = SantaClausToken(_token);\r\n    }\r\n\r\n    function registerName(string memory name) public {\r\n//        require(!registeredAddresses[msg.sender]);\r\n//        require(token.balanceOf(msg.sender) > 0);\r\n\r\n        names.push(name);\r\n        registeredAddresses[msg.sender] = true;\r\n    }\r\n\r\n    function getNames() public view returns(string[] memory) {\r\n        // may fail to return if array is too large\r\n        return names;\r\n    }\r\n}",
  "sourcePath": "/home/vagrant/m0t0k1ch1-santa/contracts/TokenHolders.sol",
  "compiler": {
    "name": "solc",
    "version": "0.5.0+commit.1d4f565a.Emscripten.clang"
  },
  "schemaVersion": "3.0.0",
  "updatedAt": "2018-12-28T06:13:00.056Z",
  "devdoc": {
    "methods": {}
  },
  "userdoc": {
    "methods": {}
  }
}